{
  "contractName": "FundingDAO",
  "abi": [
    {
      "anonymous": false,
      "inputs": [
        {
          "indexed": true,
          "internalType": "address",
          "name": "fromAddress",
          "type": "address"
        },
        {
          "indexed": false,
          "internalType": "uint256",
          "name": "amount",
          "type": "uint256"
        }
      ],
      "name": "NewMember",
      "type": "event"
    },
    {
      "anonymous": false,
      "inputs": [
        {
          "indexed": true,
          "internalType": "address",
          "name": "proposer",
          "type": "address"
        },
        {
          "indexed": false,
          "internalType": "uint256",
          "name": "amount",
          "type": "uint256"
        }
      ],
      "name": "NewProposal",
      "type": "event"
    },
    {
      "anonymous": false,
      "inputs": [
        {
          "indexed": true,
          "internalType": "address",
          "name": "stakeholder",
          "type": "address"
        },
        {
          "indexed": true,
          "internalType": "address",
          "name": "projectAddress",
          "type": "address"
        },
        {
          "indexed": false,
          "internalType": "uint256",
          "name": "amount",
          "type": "uint256"
        }
      ],
      "name": "Payment",
      "type": "event"
    },
    {
      "anonymous": false,
      "inputs": [
        {
          "indexed": true,
          "internalType": "bytes32",
          "name": "role",
          "type": "bytes32"
        },
        {
          "indexed": true,
          "internalType": "bytes32",
          "name": "previousAdminRole",
          "type": "bytes32"
        },
        {
          "indexed": true,
          "internalType": "bytes32",
          "name": "newAdminRole",
          "type": "bytes32"
        }
      ],
      "name": "RoleAdminChanged",
      "type": "event"
    },
    {
      "anonymous": false,
      "inputs": [
        {
          "indexed": true,
          "internalType": "bytes32",
          "name": "role",
          "type": "bytes32"
        },
        {
          "indexed": true,
          "internalType": "address",
          "name": "account",
          "type": "address"
        },
        {
          "indexed": true,
          "internalType": "address",
          "name": "sender",
          "type": "address"
        }
      ],
      "name": "RoleGranted",
      "type": "event"
    },
    {
      "anonymous": false,
      "inputs": [
        {
          "indexed": true,
          "internalType": "bytes32",
          "name": "role",
          "type": "bytes32"
        },
        {
          "indexed": true,
          "internalType": "address",
          "name": "account",
          "type": "address"
        },
        {
          "indexed": true,
          "internalType": "address",
          "name": "sender",
          "type": "address"
        }
      ],
      "name": "RoleRevoked",
      "type": "event"
    },
    {
      "inputs": [],
      "name": "DEFAULT_ADMIN_ROLE",
      "outputs": [
        {
          "internalType": "bytes32",
          "name": "",
          "type": "bytes32"
        }
      ],
      "stateMutability": "view",
      "type": "function",
      "constant": true
    },
    {
      "inputs": [],
      "name": "MEMBER",
      "outputs": [
        {
          "internalType": "bytes32",
          "name": "",
          "type": "bytes32"
        }
      ],
      "stateMutability": "view",
      "type": "function",
      "constant": true
    },
    {
      "inputs": [],
      "name": "STAKEHOLDER",
      "outputs": [
        {
          "internalType": "bytes32",
          "name": "",
          "type": "bytes32"
        }
      ],
      "stateMutability": "view",
      "type": "function",
      "constant": true
    },
    {
      "inputs": [
        {
          "internalType": "bytes32",
          "name": "role",
          "type": "bytes32"
        }
      ],
      "name": "getRoleAdmin",
      "outputs": [
        {
          "internalType": "bytes32",
          "name": "",
          "type": "bytes32"
        }
      ],
      "stateMutability": "view",
      "type": "function",
      "constant": true
    },
    {
      "inputs": [
        {
          "internalType": "bytes32",
          "name": "role",
          "type": "bytes32"
        },
        {
          "internalType": "address",
          "name": "account",
          "type": "address"
        }
      ],
      "name": "grantRole",
      "outputs": [],
      "stateMutability": "nonpayable",
      "type": "function"
    },
    {
      "inputs": [
        {
          "internalType": "bytes32",
          "name": "role",
          "type": "bytes32"
        },
        {
          "internalType": "address",
          "name": "account",
          "type": "address"
        }
      ],
      "name": "hasRole",
      "outputs": [
        {
          "internalType": "bool",
          "name": "",
          "type": "bool"
        }
      ],
      "stateMutability": "view",
      "type": "function",
      "constant": true
    },
    {
      "inputs": [],
      "name": "proposalsCount",
      "outputs": [
        {
          "internalType": "uint256",
          "name": "",
          "type": "uint256"
        }
      ],
      "stateMutability": "view",
      "type": "function",
      "constant": true
    },
    {
      "inputs": [
        {
          "internalType": "bytes32",
          "name": "role",
          "type": "bytes32"
        },
        {
          "internalType": "address",
          "name": "account",
          "type": "address"
        }
      ],
      "name": "renounceRole",
      "outputs": [],
      "stateMutability": "nonpayable",
      "type": "function"
    },
    {
      "inputs": [
        {
          "internalType": "bytes32",
          "name": "role",
          "type": "bytes32"
        },
        {
          "internalType": "address",
          "name": "account",
          "type": "address"
        }
      ],
      "name": "revokeRole",
      "outputs": [],
      "stateMutability": "nonpayable",
      "type": "function"
    },
    {
      "inputs": [
        {
          "internalType": "bytes4",
          "name": "interfaceId",
          "type": "bytes4"
        }
      ],
      "name": "supportsInterface",
      "outputs": [
        {
          "internalType": "bool",
          "name": "",
          "type": "bool"
        }
      ],
      "stateMutability": "view",
      "type": "function",
      "constant": true
    },
    {
      "inputs": [
        {
          "internalType": "string",
          "name": "title",
          "type": "string"
        },
        {
          "internalType": "string",
          "name": "desc",
          "type": "string"
        },
        {
          "internalType": "address",
          "name": "receiverAddress",
          "type": "address"
        },
        {
          "internalType": "uint256",
          "name": "amount",
          "type": "uint256"
        },
        {
          "internalType": "string",
          "name": "imageId",
          "type": "string"
        }
      ],
      "name": "createProposal",
      "outputs": [],
      "stateMutability": "payable",
      "type": "function",
      "payable": true
    },
    {
      "inputs": [],
      "name": "getAllProposals",
      "outputs": [
        {
          "components": [
            {
              "internalType": "uint256",
              "name": "id",
              "type": "uint256"
            },
            {
              "internalType": "uint256",
              "name": "amount",
              "type": "uint256"
            },
            {
              "internalType": "uint256",
              "name": "livePeriod",
              "type": "uint256"
            },
            {
              "internalType": "uint256",
              "name": "voteInFavor",
              "type": "uint256"
            },
            {
              "internalType": "uint256",
              "name": "voteAgainst",
              "type": "uint256"
            },
            {
              "internalType": "string",
              "name": "title",
              "type": "string"
            },
            {
              "internalType": "string",
              "name": "desc",
              "type": "string"
            },
            {
              "internalType": "bool",
              "name": "isCompleted",
              "type": "bool"
            },
            {
              "internalType": "bool",
              "name": "paid",
              "type": "bool"
            },
            {
              "internalType": "bool",
              "name": "isPaid",
              "type": "bool"
            },
            {
              "internalType": "address payable",
              "name": "receiverAddress",
              "type": "address"
            },
            {
              "internalType": "address",
              "name": "proposer",
              "type": "address"
            },
            {
              "internalType": "uint256",
              "name": "totalFundRaised",
              "type": "uint256"
            },
            {
              "components": [
                {
                  "internalType": "address",
                  "name": "payer",
                  "type": "address"
                },
                {
                  "internalType": "uint256",
                  "name": "amount",
                  "type": "uint256"
                },
                {
                  "internalType": "uint256",
                  "name": "timestamp",
                  "type": "uint256"
                }
              ],
              "internalType": "struct FundingDAO.Funding[]",
              "name": "funders",
              "type": "tuple[]"
            },
            {
              "internalType": "string",
              "name": "imageId",
              "type": "string"
            }
          ],
          "internalType": "struct FundingDAO.Proposal[]",
          "name": "",
          "type": "tuple[]"
        }
      ],
      "stateMutability": "view",
      "type": "function",
      "constant": true
    },
    {
      "inputs": [
        {
          "internalType": "uint256",
          "name": "proposalId",
          "type": "uint256"
        }
      ],
      "name": "getProposal",
      "outputs": [
        {
          "components": [
            {
              "internalType": "uint256",
              "name": "id",
              "type": "uint256"
            },
            {
              "internalType": "uint256",
              "name": "amount",
              "type": "uint256"
            },
            {
              "internalType": "uint256",
              "name": "livePeriod",
              "type": "uint256"
            },
            {
              "internalType": "uint256",
              "name": "voteInFavor",
              "type": "uint256"
            },
            {
              "internalType": "uint256",
              "name": "voteAgainst",
              "type": "uint256"
            },
            {
              "internalType": "string",
              "name": "title",
              "type": "string"
            },
            {
              "internalType": "string",
              "name": "desc",
              "type": "string"
            },
            {
              "internalType": "bool",
              "name": "isCompleted",
              "type": "bool"
            },
            {
              "internalType": "bool",
              "name": "paid",
              "type": "bool"
            },
            {
              "internalType": "bool",
              "name": "isPaid",
              "type": "bool"
            },
            {
              "internalType": "address payable",
              "name": "receiverAddress",
              "type": "address"
            },
            {
              "internalType": "address",
              "name": "proposer",
              "type": "address"
            },
            {
              "internalType": "uint256",
              "name": "totalFundRaised",
              "type": "uint256"
            },
            {
              "components": [
                {
                  "internalType": "address",
                  "name": "payer",
                  "type": "address"
                },
                {
                  "internalType": "uint256",
                  "name": "amount",
                  "type": "uint256"
                },
                {
                  "internalType": "uint256",
                  "name": "timestamp",
                  "type": "uint256"
                }
              ],
              "internalType": "struct FundingDAO.Funding[]",
              "name": "funders",
              "type": "tuple[]"
            },
            {
              "internalType": "string",
              "name": "imageId",
              "type": "string"
            }
          ],
          "internalType": "struct FundingDAO.Proposal",
          "name": "",
          "type": "tuple"
        }
      ],
      "stateMutability": "view",
      "type": "function",
      "constant": true
    },
    {
      "inputs": [],
      "name": "getVotes",
      "outputs": [
        {
          "internalType": "uint256[]",
          "name": "",
          "type": "uint256[]"
        }
      ],
      "stateMutability": "view",
      "type": "function",
      "constant": true
    },
    {
      "inputs": [],
      "name": "getStakeholderBal",
      "outputs": [
        {
          "internalType": "uint256",
          "name": "",
          "type": "uint256"
        }
      ],
      "stateMutability": "view",
      "type": "function",
      "constant": true
    },
    {
      "inputs": [],
      "name": "getMemberBal",
      "outputs": [
        {
          "internalType": "uint256",
          "name": "",
          "type": "uint256"
        }
      ],
      "stateMutability": "view",
      "type": "function",
      "constant": true
    },
    {
      "inputs": [],
      "name": "isStakeholder",
      "outputs": [
        {
          "internalType": "bool",
          "name": "",
          "type": "bool"
        }
      ],
      "stateMutability": "view",
      "type": "function",
      "constant": true
    },
    {
      "inputs": [],
      "name": "isMember",
      "outputs": [
        {
          "internalType": "bool",
          "name": "",
          "type": "bool"
        }
      ],
      "stateMutability": "view",
      "type": "function",
      "constant": true
    },
    {
      "inputs": [
        {
          "internalType": "uint256",
          "name": "proposalId",
          "type": "uint256"
        },
        {
          "internalType": "bool",
          "name": "inFavour",
          "type": "bool"
        }
      ],
      "name": "vote",
      "outputs": [],
      "stateMutability": "nonpayable",
      "type": "function"
    },
    {
      "inputs": [
        {
          "internalType": "uint256",
          "name": "proposalId",
          "type": "uint256"
        },
        {
          "internalType": "uint256",
          "name": "fundAmount",
          "type": "uint256"
        }
      ],
      "name": "provideFunds",
      "outputs": [],
      "stateMutability": "payable",
      "type": "function",
      "payable": true
    },
    {
      "inputs": [
        {
          "internalType": "uint256",
          "name": "proposalId",
          "type": "uint256"
        }
      ],
      "name": "releaseFunding",
      "outputs": [],
      "stateMutability": "payable",
      "type": "function",
      "payable": true
    },
    {
      "inputs": [],
      "name": "createStakeholder",
      "outputs": [],
      "stateMutability": "payable",
      "type": "function",
      "payable": true
    }
  ],
  "bytecode": "0x6080604052600060025534801561001557600080fd5b506001600081905550613ac58061002d6000396000f3fe6080604052600436106101355760003560e01c806391d14854116100ab578063c7f758a81161006f578063c7f758a8146103ef578063c9d27afe1461042c578063cceb68f514610455578063d02982cf14610480578063d547741f146104ab578063f8d41b96146104d457610135565b806391d1485414610324578063a217fddf14610361578063a8e78b201461038c578063b3bcf752146103a8578063c02146ac146103c457610135565b8063248a9ca3116100fd578063248a9ca3146102235780632f2ff15d1461026057806336568abe146102895780636dd8cdd2146102b25780637ed3a7e7146102dd5780638bc3b92b1461030857610135565b806301ffc9a71461013a5780630a9f46ad146101775780630d2e57ee146101a25780630dc96015146101cd5780631c681a42146101f8575b600080fd5b34801561014657600080fd5b50610161600480360381019061015c9190612510565b6104de565b60405161016e9190612558565b60405180910390f35b34801561018357600080fd5b5061018c610558565b604051610199919061258c565b60405180910390f35b3480156101ae57600080fd5b506101b761055e565b6040516101c4919061258c565b60405180910390f35b3480156101d957600080fd5b506101e261062c565b6040516101ef9190612665565b60405180910390f35b34801561020457600080fd5b5061020d610748565b60405161021a91906126a0565b60405180910390f35b34801561022f57600080fd5b5061024a600480360381019061024591906126e7565b61076c565b60405161025791906126a0565b60405180910390f35b34801561026c57600080fd5b5061028760048036038101906102829190612772565b61078c565b005b34801561029557600080fd5b506102b060048036038101906102ab9190612772565b6107ad565b005b3480156102be57600080fd5b506102c7610830565b6040516102d4919061258c565b60405180910390f35b3480156102e957600080fd5b506102f26108fe565b6040516102ff91906126a0565b60405180910390f35b610322600480360381019061031d91906127de565b610922565b005b34801561033057600080fd5b5061034b60048036038101906103469190612772565b610bae565b6040516103589190612558565b60405180910390f35b34801561036d57600080fd5b50610376610c19565b60405161038391906126a0565b60405180910390f35b6103a660048036038101906103a19190612883565b610c20565b005b6103c260048036038101906103bd919061295f565b610eac565b005b3480156103d057600080fd5b506103d9611041565b6040516103e69190612558565b60405180910390f35b3480156103fb57600080fd5b506104166004803603810190610411919061295f565b61108a565b6040516104239190612cad565b60405180910390f35b34801561043857600080fd5b50610453600480360381019061044e9190612cfb565b611470565b005b34801561046157600080fd5b5061046a611739565b6040516104779190612f55565b60405180910390f35b34801561048c57600080fd5b50610495611bb2565b6040516104a29190612558565b60405180910390f35b3480156104b757600080fd5b506104d260048036038101906104cd9190612772565b611bfb565b005b6104dc611c1c565b005b60007f7965db0b000000000000000000000000000000000000000000000000000000007bffffffffffffffffffffffffffffffffffffffffffffffffffffffff1916827bffffffffffffffffffffffffffffffffffffffffffffffffffffffff19161480610551575061055082611ed7565b5b9050919050565b60025481565b6000604051806060016040528060248152602001613a49602491396105a37fffa60083152bd11704a80cc8c7a409dad8aa74288b454a3ba0e94c0abc7cf16833610bae565b81906105e5576040517f08c379a00000000000000000000000000000000000000000000000000000000081526004016105dc9190612fc1565b60405180910390fd5b50600560003373ffffffffffffffffffffffffffffffffffffffff1673ffffffffffffffffffffffffffffffffffffffff1681526020019081526020016000205491505090565b60606040518060600160405280602881526020016139a5602891396106717ff4bb84e1768dd286358a736d195a0b228621173f655a73b89bf8b191ed0ba07d33610bae565b81906106b3576040517f08c379a00000000000000000000000000000000000000000000000000000000081526004016106aa9190612fc1565b60405180910390fd5b50600660003373ffffffffffffffffffffffffffffffffffffffff1673ffffffffffffffffffffffffffffffffffffffff16815260200190815260200160002080548060200260200160405190810160405280929190818152602001828054801561073d57602002820191906000526020600020905b815481526020019060010190808311610729575b505050505091505090565b7fffa60083152bd11704a80cc8c7a409dad8aa74288b454a3ba0e94c0abc7cf16881565b600060016000838152602001908152602001600020600101549050919050565b6107958261076c565b61079e81611f41565b6107a88383611f55565b505050565b6107b5612035565b73ffffffffffffffffffffffffffffffffffffffff168173ffffffffffffffffffffffffffffffffffffffff1614610822576040517f08c379a000000000000000000000000000000000000000000000000000000000815260040161081990613055565b60405180910390fd5b61082c828261203d565b5050565b60006040518060600160405280602881526020016139a5602891396108757ff4bb84e1768dd286358a736d195a0b228621173f655a73b89bf8b191ed0ba07d33610bae565b81906108b7576040517f08c379a00000000000000000000000000000000000000000000000000000000081526004016108ae9190612fc1565b60405180910390fd5b50600460003373ffffffffffffffffffffffffffffffffffffffff1673ffffffffffffffffffffffffffffffffffffffff1681526020019081526020016000205491505090565b7ff4bb84e1768dd286358a736d195a0b228621173f655a73b89bf8b191ed0ba07d81565b604051806060016040528060238152602001613a6d602391396109657ff4bb84e1768dd286358a736d195a0b228621173f655a73b89bf8b191ed0ba07d33610bae565b81906109a7576040517f08c379a000000000000000000000000000000000000000000000000000000000815260040161099e9190612fc1565b60405180910390fd5b5060006003600085815260200190815260200160002090508060070160029054906101000a900460ff1615610a11576040517f08c379a0000000000000000000000000000000000000000000000000000000008152600401610a08906130c1565b60405180910390fd5b8060040154816003015411610a5b576040517f08c379a0000000000000000000000000000000000000000000000000000000008152600401610a5290613153565b60405180910390fd5b8060010154816009015410610aa5576040517f08c379a0000000000000000000000000000000000000000000000000000000008152600401610a9c906130c1565b60405180910390fd5b82816009016000828254610ab991906131a2565b9250508190555080600a0160405180606001604052803373ffffffffffffffffffffffffffffffffffffffff16815260200185815260200142815250908060018154018082558091505060019003906000526020600020906003020160009091909190915060008201518160000160006101000a81548173ffffffffffffffffffffffffffffffffffffffff021916908373ffffffffffffffffffffffffffffffffffffffff160217905550602082015181600101556040820151816002015550508060010154816009015410610ba85760018160070160006101000a81548160ff0219169083151502179055505b50505050565b60006001600084815260200190815260200160002060000160008373ffffffffffffffffffffffffffffffffffffffff1673ffffffffffffffffffffffffffffffffffffffff16815260200190815260200160002060009054906101000a900460ff16905092915050565b6000801b81565b6040518060600160405280602581526020016139cd60259139610c637fffa60083152bd11704a80cc8c7a409dad8aa74288b454a3ba0e94c0abc7cf16833610bae565b8190610ca5576040517f08c379a0000000000000000000000000000000000000000000000000000000008152600401610c9c9190612fc1565b60405180910390fd5b50674563918244f400003414610cf0576040517f08c379a0000000000000000000000000000000000000000000000000000000008152600401610ce79061326a565b60405180910390fd5b6000600254905060006003600083815260200190815260200160002090508181600001819055508888826006019182610d2a9291906134d0565b508a8a826005019182610d3e9291906134d0565b50868160070160036101000a81548173ffffffffffffffffffffffffffffffffffffffff021916908373ffffffffffffffffffffffffffffffffffffffff160217905550338160080160006101000a81548173ffffffffffffffffffffffffffffffffffffffff021916908373ffffffffffffffffffffffffffffffffffffffff1602179055508581600101819055506203f48063ffffffff1642610de391906131a2565b816002018190555060008160070160026101000a81548160ff02191690831515021790555060008160070160006101000a81548160ff021916908315150217905550848482600b019182610e389291906134d0565b5060026000815480929190610e4c906135a0565b91905055503373ffffffffffffffffffffffffffffffffffffffff167f8dfa4a39b973cacc42c5d14d9461d66fd1fda5ea696f7d2a3c44fd9d7f11d04f87604051610e97919061258c565b60405180910390a25050505050505050505050565b6040518060600160405280602e81526020016139f2602e9139610eef7ff4bb84e1768dd286358a736d195a0b228621173f655a73b89bf8b191ed0ba07d33610bae565b8190610f31576040517f08c379a0000000000000000000000000000000000000000000000000000000008152600401610f289190612fc1565b60405180910390fd5b5060006003600084815260200190815260200160002090508060010154816009015411610f93576040517f08c379a0000000000000000000000000000000000000000000000000000000008152600401610f8a9061365a565b60405180910390fd5b8060070160039054906101000a900473ffffffffffffffffffffffffffffffffffffffff1673ffffffffffffffffffffffffffffffffffffffff166108fc82600901549081150290604051600060405180830381858888f19350505050158015611001573d6000803e3d6000fd5b5060018160070160026101000a81548160ff02191690831515021790555060018160070160006101000a81548160ff021916908315150217905550505050565b600080600460003373ffffffffffffffffffffffffffffffffffffffff1673ffffffffffffffffffffffffffffffffffffffff1681526020019081526020016000205411905090565b611092612406565b60036000838152602001908152602001600020604051806101e001604052908160008201548152602001600182015481526020016002820154815260200160038201548152602001600482015481526020016005820180546110f3906132f3565b80601f016020809104026020016040519081016040528092919081815260200182805461111f906132f3565b801561116c5780601f106111415761010080835404028352916020019161116c565b820191906000526020600020905b81548152906001019060200180831161114f57829003601f168201915b50505050508152602001600682018054611185906132f3565b80601f01602080910402602001604051908101604052809291908181526020018280546111b1906132f3565b80156111fe5780601f106111d3576101008083540402835291602001916111fe565b820191906000526020600020905b8154815290600101906020018083116111e157829003601f168201915b505050505081526020016007820160009054906101000a900460ff161515151581526020016007820160019054906101000a900460ff161515151581526020016007820160029054906101000a900460ff161515151581526020016007820160039054906101000a900473ffffffffffffffffffffffffffffffffffffffff1673ffffffffffffffffffffffffffffffffffffffff1673ffffffffffffffffffffffffffffffffffffffff1681526020016008820160009054906101000a900473ffffffffffffffffffffffffffffffffffffffff1673ffffffffffffffffffffffffffffffffffffffff1673ffffffffffffffffffffffffffffffffffffffff16815260200160098201548152602001600a8201805480602002602001604051908101604052809291908181526020016000905b828210156113cf57838290600052602060002090600302016040518060600160405290816000820160009054906101000a900473ffffffffffffffffffffffffffffffffffffffff1673ffffffffffffffffffffffffffffffffffffffff1673ffffffffffffffffffffffffffffffffffffffff1681526020016001820154815260200160028201548152505081526020019060010190611333565b505050508152602001600b820180546113e7906132f3565b80601f0160208091040260200160405190810160405280929190818152602001828054611413906132f3565b80156114605780601f1061143557610100808354040283529160200191611460565b820191906000526020600020905b81548152906001019060200180831161144357829003601f168201915b5050505050815250509050919050565b604051806060016040528060298152602001613a20602991396114b37ff4bb84e1768dd286358a736d195a0b228621173f655a73b89bf8b191ed0ba07d33610bae565b81906114f5576040517f08c379a00000000000000000000000000000000000000000000000000000000081526004016114ec9190612fc1565b60405180910390fd5b5060006003600085815260200190815260200160002090508060070160009054906101000a900460ff168061152e575042816002015411155b1561158b5760018160070160006101000a81548160ff0219169083151502179055506040517f08c379a0000000000000000000000000000000000000000000000000000000008152600401611582906136ec565b60405180910390fd5b60005b600660003373ffffffffffffffffffffffffffffffffffffffff1673ffffffffffffffffffffffffffffffffffffffff1681526020019081526020016000208054905081101561168c57600660003373ffffffffffffffffffffffffffffffffffffffff1673ffffffffffffffffffffffffffffffffffffffff16815260200190815260200160002081815481106116295761162861370c565b5b9060005260206000200154826000015403611679576040517f08c379a000000000000000000000000000000000000000000000000000000000815260040161167090613787565b60405180910390fd5b8080611684906135a0565b91505061158e565b5082156116b2578060030160008154809291906116a8906135a0565b91905055506116cd565b8060040160008154809291906116c7906135a0565b91905055505b600660003373ffffffffffffffffffffffffffffffffffffffff1673ffffffffffffffffffffffffffffffffffffffff16815260200190815260200160002084908060018154018082558091505060019003906000526020600020016000909190919091505550505050565b6060600060025467ffffffffffffffff81111561175957611758613295565b5b60405190808252806020026020018201604052801561179257816020015b61177f612406565b8152602001906001900390816117775790505b50905060005b600254811015611baa5760036000828152602001908152602001600020604051806101e00160405290816000820154815260200160018201548152602001600282015481526020016003820154815260200160048201548152602001600582018054611803906132f3565b80601f016020809104026020016040519081016040528092919081815260200182805461182f906132f3565b801561187c5780601f106118515761010080835404028352916020019161187c565b820191906000526020600020905b81548152906001019060200180831161185f57829003601f168201915b50505050508152602001600682018054611895906132f3565b80601f01602080910402602001604051908101604052809291908181526020018280546118c1906132f3565b801561190e5780601f106118e35761010080835404028352916020019161190e565b820191906000526020600020905b8154815290600101906020018083116118f157829003601f168201915b505050505081526020016007820160009054906101000a900460ff161515151581526020016007820160019054906101000a900460ff161515151581526020016007820160029054906101000a900460ff161515151581526020016007820160039054906101000a900473ffffffffffffffffffffffffffffffffffffffff1673ffffffffffffffffffffffffffffffffffffffff1673ffffffffffffffffffffffffffffffffffffffff1681526020016008820160009054906101000a900473ffffffffffffffffffffffffffffffffffffffff1673ffffffffffffffffffffffffffffffffffffffff1673ffffffffffffffffffffffffffffffffffffffff16815260200160098201548152602001600a8201805480602002602001604051908101604052809291908181526020016000905b82821015611adf57838290600052602060002090600302016040518060600160405290816000820160009054906101000a900473ffffffffffffffffffffffffffffffffffffffff1673ffffffffffffffffffffffffffffffffffffffff1673ffffffffffffffffffffffffffffffffffffffff1681526020016001820154815260200160028201548152505081526020019060010190611a43565b505050508152602001600b82018054611af7906132f3565b80601f0160208091040260200160405190810160405280929190818152602001828054611b23906132f3565b8015611b705780601f10611b4557610100808354040283529160200191611b70565b820191906000526020600020905b815481529060010190602001808311611b5357829003601f168201915b505050505081525050828281518110611b8c57611b8b61370c565b5b60200260200101819052508080611ba2906135a0565b915050611798565b508091505090565b600080600560003373ffffffffffffffffffffffffffffffffffffffff1673ffffffffffffffffffffffffffffffffffffffff1681526020019081526020016000205411905090565b611c048261076c565b611c0d81611f41565b611c17838361203d565b505050565b6000349050611c4b7ff4bb84e1768dd286358a736d195a0b228621173f655a73b89bf8b191ed0ba07d33610bae565b611e2757600081600560003373ffffffffffffffffffffffffffffffffffffffff1673ffffffffffffffffffffffffffffffffffffffff16815260200190815260200160002054611c9c91906131a2565b9050671bc16d674ec800008110611da057611cd77ff4bb84e1768dd286358a736d195a0b228621173f655a73b89bf8b191ed0ba07d3361211f565b611d017fffa60083152bd11704a80cc8c7a409dad8aa74288b454a3ba0e94c0abc7cf1683361211f565b80600460003373ffffffffffffffffffffffffffffffffffffffff1673ffffffffffffffffffffffffffffffffffffffff1681526020019081526020016000208190555081600560003373ffffffffffffffffffffffffffffffffffffffff1673ffffffffffffffffffffffffffffffffffffffff1681526020019081526020016000206000828254611d9491906131a2565b92505081905550611e21565b611dca7fffa60083152bd11704a80cc8c7a409dad8aa74288b454a3ba0e94c0abc7cf1683361211f565b81600560003373ffffffffffffffffffffffffffffffffffffffff1673ffffffffffffffffffffffffffffffffffffffff1681526020019081526020016000206000828254611e1991906131a2565b925050819055505b50611ed4565b80600560003373ffffffffffffffffffffffffffffffffffffffff1673ffffffffffffffffffffffffffffffffffffffff1681526020019081526020016000206000828254611e7691906131a2565b9250508190555080600460003373ffffffffffffffffffffffffffffffffffffffff1673ffffffffffffffffffffffffffffffffffffffff1681526020019081526020016000206000828254611ecc91906131a2565b925050819055505b50565b60007f01ffc9a7000000000000000000000000000000000000000000000000000000007bffffffffffffffffffffffffffffffffffffffffffffffffffffffff1916827bffffffffffffffffffffffffffffffffffffffffffffffffffffffff1916149050919050565b611f5281611f4d612035565b61212d565b50565b611f5f8282610bae565b61203157600180600084815260200190815260200160002060000160008373ffffffffffffffffffffffffffffffffffffffff1673ffffffffffffffffffffffffffffffffffffffff16815260200190815260200160002060006101000a81548160ff021916908315150217905550611fd6612035565b73ffffffffffffffffffffffffffffffffffffffff168173ffffffffffffffffffffffffffffffffffffffff16837f2f8788117e7eff1d82e926ec794901d17c78024a50270940304540a733656f0d60405160405180910390a45b5050565b600033905090565b6120478282610bae565b1561211b5760006001600084815260200190815260200160002060000160008373ffffffffffffffffffffffffffffffffffffffff1673ffffffffffffffffffffffffffffffffffffffff16815260200190815260200160002060006101000a81548160ff0219169083151502179055506120c0612035565b73ffffffffffffffffffffffffffffffffffffffff168173ffffffffffffffffffffffffffffffffffffffff16837ff6391f5c32d9c69d2a47ea670b442974b53935d1edc7fd64eb21e047a839171b60405160405180910390a45b5050565b6121298282611f55565b5050565b6121378282610bae565b6121c65761215c8173ffffffffffffffffffffffffffffffffffffffff1660146121ca565b61216a8360001c60206121ca565b60405160200161217b92919061387b565b6040516020818303038152906040526040517f08c379a00000000000000000000000000000000000000000000000000000000081526004016121bd9190612fc1565b60405180910390fd5b5050565b6060600060028360026121dd91906138b5565b6121e791906131a2565b67ffffffffffffffff811115612200576121ff613295565b5b6040519080825280601f01601f1916602001820160405280156122325781602001600182028036833780820191505090505b5090507f30000000000000000000000000000000000000000000000000000000000000008160008151811061226a5761226961370c565b5b60200101907effffffffffffffffffffffffffffffffffffffffffffffffffffffffffffff1916908160001a9053507f7800000000000000000000000000000000000000000000000000000000000000816001815181106122ce576122cd61370c565b5b60200101907effffffffffffffffffffffffffffffffffffffffffffffffffffffffffffff1916908160001a9053506000600184600261230e91906138b5565b61231891906131a2565b90505b60018111156123b8577f3031323334353637383961626364656600000000000000000000000000000000600f86166010811061235a5761235961370c565b5b1a60f81b8282815181106123715761237061370c565b5b60200101907effffffffffffffffffffffffffffffffffffffffffffffffffffffffffffff1916908160001a905350600485901c9450806123b19061390f565b905061231b565b50600084146123fc576040517f08c379a00000000000000000000000000000000000000000000000000000000081526004016123f390613984565b60405180910390fd5b8091505092915050565b604051806101e0016040528060008152602001600081526020016000815260200160008152602001600081526020016060815260200160608152602001600015158152602001600015158152602001600015158152602001600073ffffffffffffffffffffffffffffffffffffffff168152602001600073ffffffffffffffffffffffffffffffffffffffff1681526020016000815260200160608152602001606081525090565b600080fd5b600080fd5b60007fffffffff0000000000000000000000000000000000000000000000000000000082169050919050565b6124ed816124b8565b81146124f857600080fd5b50565b60008135905061250a816124e4565b92915050565b600060208284031215612526576125256124ae565b5b6000612534848285016124fb565b91505092915050565b60008115159050919050565b6125528161253d565b82525050565b600060208201905061256d6000830184612549565b92915050565b6000819050919050565b61258681612573565b82525050565b60006020820190506125a1600083018461257d565b92915050565b600081519050919050565b600082825260208201905092915050565b6000819050602082019050919050565b6125dc81612573565b82525050565b60006125ee83836125d3565b60208301905092915050565b6000602082019050919050565b6000612612826125a7565b61261c81856125b2565b9350612627836125c3565b8060005b8381101561265857815161263f88826125e2565b975061264a836125fa565b92505060018101905061262b565b5085935050505092915050565b6000602082019050818103600083015261267f8184612607565b905092915050565b6000819050919050565b61269a81612687565b82525050565b60006020820190506126b56000830184612691565b92915050565b6126c481612687565b81146126cf57600080fd5b50565b6000813590506126e1816126bb565b92915050565b6000602082840312156126fd576126fc6124ae565b5b600061270b848285016126d2565b91505092915050565b600073ffffffffffffffffffffffffffffffffffffffff82169050919050565b600061273f82612714565b9050919050565b61274f81612734565b811461275a57600080fd5b50565b60008135905061276c81612746565b92915050565b60008060408385031215612789576127886124ae565b5b6000612797858286016126d2565b92505060206127a88582860161275d565b9150509250929050565b6127bb81612573565b81146127c657600080fd5b50565b6000813590506127d8816127b2565b92915050565b600080604083850312156127f5576127f46124ae565b5b6000612803858286016127c9565b9250506020612814858286016127c9565b9150509250929050565b600080fd5b600080fd5b600080fd5b60008083601f8401126128435761284261281e565b5b8235905067ffffffffffffffff8111156128605761285f612823565b5b60208301915083600182028301111561287c5761287b612828565b5b9250929050565b60008060008060008060008060a0898b0312156128a3576128a26124ae565b5b600089013567ffffffffffffffff8111156128c1576128c06124b3565b5b6128cd8b828c0161282d565b9850985050602089013567ffffffffffffffff8111156128f0576128ef6124b3565b5b6128fc8b828c0161282d565b9650965050604061290f8b828c0161275d565b94505060606129208b828c016127c9565b935050608089013567ffffffffffffffff811115612941576129406124b3565b5b61294d8b828c0161282d565b92509250509295985092959890939650565b600060208284031215612975576129746124ae565b5b6000612983848285016127c9565b91505092915050565b600081519050919050565b600082825260208201905092915050565b60005b838110156129c65780820151818401526020810190506129ab565b838111156129d5576000848401525b50505050565b6000601f19601f8301169050919050565b60006129f78261298c565b612a018185612997565b9350612a118185602086016129a8565b612a1a816129db565b840191505092915050565b612a2e8161253d565b82525050565b6000612a3f82612714565b9050919050565b612a4f81612a34565b82525050565b612a5e81612734565b82525050565b600081519050919050565b600082825260208201905092915050565b6000819050602082019050919050565b606082016000820151612aa66000850182612a55565b506020820151612ab960208501826125d3565b506040820151612acc60408501826125d3565b50505050565b6000612ade8383612a90565b60608301905092915050565b6000602082019050919050565b6000612b0282612a64565b612b0c8185612a6f565b9350612b1783612a80565b8060005b83811015612b48578151612b2f8882612ad2565b9750612b3a83612aea565b925050600181019050612b1b565b5085935050505092915050565b60006101e083016000830151612b6e60008601826125d3565b506020830151612b8160208601826125d3565b506040830151612b9460408601826125d3565b506060830151612ba760608601826125d3565b506080830151612bba60808601826125d3565b5060a083015184820360a0860152612bd282826129ec565b91505060c083015184820360c0860152612bec82826129ec565b91505060e0830151612c0160e0860182612a25565b50610100830151612c16610100860182612a25565b50610120830151612c2b610120860182612a25565b50610140830151612c40610140860182612a46565b50610160830151612c55610160860182612a55565b50610180830151612c6a6101808601826125d3565b506101a08301518482036101a0860152612c848282612af7565b9150506101c08301518482036101c0860152612ca082826129ec565b9150508091505092915050565b60006020820190508181036000830152612cc78184612b55565b905092915050565b612cd88161253d565b8114612ce357600080fd5b50565b600081359050612cf581612ccf565b92915050565b60008060408385031215612d1257612d116124ae565b5b6000612d20858286016127c9565b9250506020612d3185828601612ce6565b9150509250929050565b600081519050919050565b600082825260208201905092915050565b6000819050602082019050919050565b60006101e083016000830151612d8060008601826125d3565b506020830151612d9360208601826125d3565b506040830151612da660408601826125d3565b506060830151612db960608601826125d3565b506080830151612dcc60808601826125d3565b5060a083015184820360a0860152612de482826129ec565b91505060c083015184820360c0860152612dfe82826129ec565b91505060e0830151612e1360e0860182612a25565b50610100830151612e28610100860182612a25565b50610120830151612e3d610120860182612a25565b50610140830151612e52610140860182612a46565b50610160830151612e67610160860182612a55565b50610180830151612e7c6101808601826125d3565b506101a08301518482036101a0860152612e968282612af7565b9150506101c08301518482036101c0860152612eb282826129ec565b9150508091505092915050565b6000612ecb8383612d67565b905092915050565b6000602082019050919050565b6000612eeb82612d3b565b612ef58185612d46565b935083602082028501612f0785612d57565b8060005b85811015612f435784840389528151612f248582612ebf565b9450612f2f83612ed3565b925060208a01995050600181019050612f0b565b50829750879550505050505092915050565b60006020820190508181036000830152612f6f8184612ee0565b905092915050565b600082825260208201905092915050565b6000612f938261298c565b612f9d8185612f77565b9350612fad8185602086016129a8565b612fb6816129db565b840191505092915050565b60006020820190508181036000830152612fdb8184612f88565b905092915050565b7f416363657373436f6e74726f6c3a2063616e206f6e6c792072656e6f756e636560008201527f20726f6c657320666f722073656c660000000000000000000000000000000000602082015250565b600061303f602f83612f77565b915061304a82612fe3565b604082019050919050565b6000602082019050818103600083015261306e81613032565b9050919050565b7f52657175697265642066756e6473206172652070726f76696465642e00000000600082015250565b60006130ab601c83612f77565b91506130b682613075565b602082019050919050565b600060208201905081810360008301526130da8161309e565b9050919050565b7f546869732070726f706f73616c206973206e6f742073656c656374656420666f60008201527f722066756e64696e672e00000000000000000000000000000000000000000000602082015250565b600061313d602a83612f77565b9150613148826130e1565b604082019050919050565b6000602082019050818103600083015261316c81613130565b9050919050565b7f4e487b7100000000000000000000000000000000000000000000000000000000600052601160045260246000fd5b60006131ad82612573565b91506131b883612573565b9250827fffffffffffffffffffffffffffffffffffffffffffffffffffffffffffffffff038211156131ed576131ec613173565b5b828201905092915050565b7f596f75206e65656420746f206164642035204d4154494320746f20637265617460008201527f6520612070726f706f73616c0000000000000000000000000000000000000000602082015250565b6000613254602c83612f77565b915061325f826131f8565b604082019050919050565b6000602082019050818103600083015261328381613247565b9050919050565b600082905092915050565b7f4e487b7100000000000000000000000000000000000000000000000000000000600052604160045260246000fd5b7f4e487b7100000000000000000000000000000000000000000000000000000000600052602260045260246000fd5b6000600282049050600182168061330b57607f821691505b60208210810361331e5761331d6132c4565b5b50919050565b60008190508160005260206000209050919050565b60006020601f8301049050919050565b600082821b905092915050565b6000600883026133867fffffffffffffffffffffffffffffffffffffffffffffffffffffffffffffffff82613349565b6133908683613349565b95508019841693508086168417925050509392505050565b6000819050919050565b60006133cd6133c86133c384612573565b6133a8565b612573565b9050919050565b6000819050919050565b6133e7836133b2565b6133fb6133f3826133d4565b848454613356565b825550505050565b600090565b613410613403565b61341b8184846133de565b505050565b5b8181101561343f57613434600082613408565b600181019050613421565b5050565b601f8211156134845761345581613324565b61345e84613339565b8101602085101561346d578190505b61348161347985613339565b830182613420565b50505b505050565b600082821c905092915050565b60006134a760001984600802613489565b1980831691505092915050565b60006134c08383613496565b9150826002028217905092915050565b6134da838361328a565b67ffffffffffffffff8111156134f3576134f2613295565b5b6134fd82546132f3565b613508828285613443565b6000601f8311600181146135375760008415613525578287013590505b61352f85826134b4565b865550613597565b601f19841661354586613324565b60005b8281101561356d57848901358255600182019150602085019450602081019050613548565b8683101561358a5784890135613586601f891682613496565b8355505b6001600288020188555050505b50505050505050565b60006135ab82612573565b91507fffffffffffffffffffffffffffffffffffffffffffffffffffffffffffffffff82036135dd576135dc613173565b5b600182019050919050565b7f52657175697265642066756e647320617265206e6f74206d65742e20506c656160008201527f73652070726f76696465722066756e64732e0000000000000000000000000000602082015250565b6000613644603283612f77565b915061364f826135e8565b604082019050919050565b6000602082019050818103600083015261367381613637565b9050919050565b7f54696d6520706572696f64206f6620746869732070726f706f73616c2069732060008201527f656e6465642e0000000000000000000000000000000000000000000000000000602082015250565b60006136d6602683612f77565b91506136e18261367a565b604082019050919050565b60006020820190508181036000830152613705816136c9565b9050919050565b7f4e487b7100000000000000000000000000000000000000000000000000000000600052603260045260246000fd5b7f596f752063616e206f6e6c7920766f7465206f6e63652e000000000000000000600082015250565b6000613771601783612f77565b915061377c8261373b565b602082019050919050565b600060208201905081810360008301526137a081613764565b9050919050565b600081905092915050565b7f416363657373436f6e74726f6c3a206163636f756e7420000000000000000000600082015250565b60006137e86017836137a7565b91506137f3826137b2565b601782019050919050565b60006138098261298c565b61381381856137a7565b93506138238185602086016129a8565b80840191505092915050565b7f206973206d697373696e6720726f6c6520000000000000000000000000000000600082015250565b60006138656011836137a7565b91506138708261382f565b601182019050919050565b6000613886826137db565b915061389282856137fe565b915061389d82613858565b91506138a982846137fe565b91508190509392505050565b60006138c082612573565b91506138cb83612573565b9250817fffffffffffffffffffffffffffffffffffffffffffffffffffffffffffffffff048311821515161561390457613903613173565b5b828202905092915050565b600061391a82612573565b91506000820361392d5761392c613173565b5b600182039050919050565b7f537472696e67733a20686578206c656e67746820696e73756666696369656e74600082015250565b600061396e602083612f77565b915061397982613938565b602082019050919050565b6000602082019050818103600083015261399d81613961565b905091905056fe4f6e6c79205374616b65686f6c6465722063616e2063616c6c20746869732066756e6374696f6e2e4f6e6c79206d656d626572732063616e20637265617465206e65772070726f706f73616c2e4f6e6c79205374616b65686f6c646572732061726520616c6c6f77656420746f2072656c656173652066756e64734f6e6c79205374616b65686f6c646572732063616e20766f7465206f6e20612070726f706f73616c2e4f6e6c79204d656d626572732063616e2063616c6c20746869732066756e6374696f6e2e4f6e6c79205374616b65686f6c646572732063616e206d616b65207061796d656e7473a2646970667358221220ba397a2b2fadb62e8d63b40cd2c73233e0913977ff4aaf1f912b9cc022126ded64736f6c634300080f0033",
  "immutableReferences": {},
  "source": "// SPDX-License-Identifier: MIT\r\n// /contracts/FundingDao.sol\r\npragma solidity ^0.8.0;\r\n\r\nimport \"@openzeppelin/contracts/access/AccessControl.sol\";\r\nimport \"@openzeppelin/contracts/security/ReentrancyGuard.sol\";\r\n\r\ncontract FundingDAO is ReentrancyGuard, AccessControl {\r\n    bytes32 public constant MEMBER = keccak256(\"MEMBER\");\r\n    bytes32 public constant STAKEHOLDER = keccak256(\"STAKEHOLDER\");\r\n\r\n    uint32 constant votingPeriod = 3 days;\r\n\r\n    uint256 public proposalsCount = 0;\r\n\r\n    struct Proposal {\r\n        uint256 id;\r\n        uint256 amount;\r\n        uint256 livePeriod;\r\n        uint256 voteInFavor;\r\n        uint256 voteAgainst;\r\n        string title;\r\n        string desc;\r\n        bool isCompleted;\r\n        bool paid;\r\n        bool isPaid;\r\n        address payable receiverAddress;\r\n        address proposer;\r\n        uint256 totalFundRaised;\r\n        Funding[] funders;\r\n        string imageId;\r\n    }\r\n\r\n    struct Funding {\r\n        address payer;\r\n        uint256 amount;\r\n        uint256 timestamp;\r\n    }\r\n\r\n    mapping(uint256 => Proposal) private proposals;\r\n    mapping(address => uint256) private stakeholders;\r\n    mapping(address => uint256) private members;\r\n    mapping(address => uint256[]) private votes;\r\n\r\n    event NewMember(address indexed fromAddress, uint256 amount);\r\n    event NewProposal(address indexed proposer, uint256 amount);\r\n    event Payment(\r\n        address indexed stakeholder,\r\n        address indexed projectAddress,\r\n        uint256 amount\r\n    );\r\n\r\n    modifier onlyMember(string memory message) {\r\n        require(hasRole(MEMBER, msg.sender), message);\r\n        _;\r\n    }\r\n\r\n    modifier onlyStakeholder(string memory message) {\r\n        require(hasRole(STAKEHOLDER, msg.sender), message);\r\n        _;\r\n    }\r\n\r\n    function createProposal(\r\n        string calldata title,\r\n        string calldata desc,\r\n        address receiverAddress,\r\n        uint256 amount,\r\n        string calldata imageId\r\n    ) public payable onlyMember(\"Only members can create new proposal.\") {\r\n        require(\r\n            msg.value == 5 * 10**18,\r\n            \"You need to add 5 MATIC to create a proposal\"\r\n        );\r\n        uint256 proposalId = proposalsCount;\r\n        Proposal storage proposal = proposals[proposalId];\r\n        proposal.id = proposalId;\r\n        proposal.desc = desc;\r\n        proposal.title = title;\r\n        proposal.receiverAddress = payable(receiverAddress);\r\n        proposal.proposer = payable(msg.sender);\r\n        proposal.amount = amount;\r\n        proposal.livePeriod = block.timestamp + votingPeriod;\r\n        proposal.isPaid = false;\r\n        proposal.isCompleted = false;\r\n        proposal.imageId = imageId;\r\n        proposalsCount++;\r\n        emit NewProposal(msg.sender, amount);\r\n    }\r\n\r\n    function getAllProposals() public view returns (Proposal[] memory) {\r\n        Proposal[] memory tempProposals = new Proposal[](proposalsCount);\r\n        for (uint256 index = 0; index < proposalsCount; index++) {\r\n            tempProposals[index] = proposals[index];\r\n        }\r\n        return tempProposals;\r\n    }\r\n\r\n    function getProposal(uint256 proposalId)\r\n        public\r\n        view\r\n        returns (Proposal memory)\r\n    {\r\n        return proposals[proposalId];\r\n    }\r\n\r\n    function getVotes()\r\n        public\r\n        view\r\n        onlyStakeholder(\"Only Stakeholder can call this function.\")\r\n        returns (uint256[] memory)\r\n    {\r\n        return votes[msg.sender];\r\n    }\r\n\r\n    function getStakeholderBal()\r\n        public\r\n        view\r\n        onlyStakeholder(\"Only Stakeholder can call this function.\")\r\n        returns (uint256)\r\n    {\r\n        return stakeholders[msg.sender];\r\n    }\r\n\r\n    function getMemberBal()\r\n        public\r\n        view\r\n        onlyMember(\"Only Members can call this function.\")\r\n        returns (uint256)\r\n    {\r\n        return members[msg.sender];\r\n    }\r\n\r\n    function isStakeholder() public view returns (bool) {\r\n        return stakeholders[msg.sender] > 0;\r\n    }\r\n\r\n    function isMember() public view returns (bool) {\r\n        return members[msg.sender] > 0;\r\n    }\r\n\r\n    function vote(uint256 proposalId, bool inFavour)\r\n        public\r\n        onlyStakeholder(\"Only Stakeholders can vote on a proposal.\")\r\n    {\r\n        Proposal storage proposal = proposals[proposalId];\r\n\r\n        if (proposal.isCompleted || proposal.livePeriod <= block.timestamp) {\r\n            proposal.isCompleted = true;\r\n            revert(\"Time period of this proposal is ended.\");\r\n        }\r\n        for (uint256 i = 0; i < votes[msg.sender].length; i++) {\r\n            if (proposal.id == votes[msg.sender][i])\r\n                revert(\"You can only vote once.\");\r\n        }\r\n\r\n        if (inFavour) proposal.voteInFavor++;\r\n        else proposal.voteAgainst++;\r\n\r\n        votes[msg.sender].push(proposalId);\r\n    }\r\n\r\n    function provideFunds(uint256 proposalId, uint256 fundAmount)\r\n        public\r\n        payable\r\n        onlyStakeholder(\"Only Stakeholders can make payments\")\r\n    {\r\n        Proposal storage proposal = proposals[proposalId];\r\n\r\n        if (proposal.isPaid) revert(\"Required funds are provided.\");\r\n        if (proposal.voteInFavor <= proposal.voteAgainst)\r\n            revert(\"This proposal is not selected for funding.\");\r\n        if (proposal.totalFundRaised >= proposal.amount)\r\n            revert(\"Required funds are provided.\");\r\n        proposal.totalFundRaised += fundAmount;\r\n        proposal.funders.push(Funding(msg.sender, fundAmount, block.timestamp));\r\n        if (proposal.totalFundRaised >= proposal.amount) {\r\n            proposal.isCompleted = true;\r\n        }\r\n    }\r\n\r\n    function releaseFunding(uint256 proposalId)\r\n        public\r\n        payable\r\n        onlyStakeholder(\"Only Stakeholders are allowed to release funds\")\r\n    {\r\n        Proposal storage proposal = proposals[proposalId];\r\n\r\n        if (proposal.totalFundRaised <= proposal.amount) {\r\n            revert(\"Required funds are not met. Please provider funds.\");\r\n        }\r\n        proposal.receiverAddress.transfer(proposal.totalFundRaised);\r\n        proposal.isPaid = true;\r\n        proposal.isCompleted = true;\r\n    }\r\n\r\n    function createStakeholder() public payable {\r\n        uint256 amount = msg.value;\r\n        if (!hasRole(STAKEHOLDER, msg.sender)) {\r\n            uint256 total = members[msg.sender] + amount;\r\n            if (total >= 2 ether) {\r\n                _setupRole(STAKEHOLDER, msg.sender);\r\n                _setupRole(MEMBER, msg.sender);\r\n                stakeholders[msg.sender] = total;\r\n                members[msg.sender] += amount;\r\n            } else {\r\n                _setupRole(MEMBER, msg.sender);\r\n                members[msg.sender] += amount;\r\n            }\r\n        } else {\r\n            members[msg.sender] += amount;\r\n            stakeholders[msg.sender] += amount;\r\n        }\r\n    }\r\n}",
  "sourcePath": "C:\\Users\\lenovoe14\\Desktop\\funding-dao\\contracts\\FundingDao.sol",
  "compiler": {
    "name": "solc",
    "version": "0.8.15+commit.e14f2714.Emscripten.clang"
  },
  "schemaVersion": "3.4.8",
  "updatedAt": "2022-07-12T00:36:50.806Z",
  "networkType": "ethereum",
  "devdoc": {
    "kind": "dev",
    "methods": {
      "getRoleAdmin(bytes32)": {
        "details": "Returns the admin role that controls `role`. See {grantRole} and {revokeRole}. To change a role's admin, use {_setRoleAdmin}."
      },
      "grantRole(bytes32,address)": {
        "details": "Grants `role` to `account`. If `account` had not been already granted `role`, emits a {RoleGranted} event. Requirements: - the caller must have ``role``'s admin role. May emit a {RoleGranted} event."
      },
      "hasRole(bytes32,address)": {
        "details": "Returns `true` if `account` has been granted `role`."
      },
      "renounceRole(bytes32,address)": {
        "details": "Revokes `role` from the calling account. Roles are often managed via {grantRole} and {revokeRole}: this function's purpose is to provide a mechanism for accounts to lose their privileges if they are compromised (such as when a trusted device is misplaced). If the calling account had been revoked `role`, emits a {RoleRevoked} event. Requirements: - the caller must be `account`. May emit a {RoleRevoked} event."
      },
      "revokeRole(bytes32,address)": {
        "details": "Revokes `role` from `account`. If `account` had been granted `role`, emits a {RoleRevoked} event. Requirements: - the caller must have ``role``'s admin role. May emit a {RoleRevoked} event."
      },
      "supportsInterface(bytes4)": {
        "details": "See {IERC165-supportsInterface}."
      }
    },
    "version": 1
  },
  "userdoc": {
    "kind": "user",
    "methods": {},
    "version": 1
  }
}